{
  "contractName": "SimpleStorage",
  "abi": [
    {
      "inputs": [
        {
          "internalType": "uint256",
          "name": "_a",
          "type": "uint256"
        }
      ],
      "name": "setter",
      "outputs": [],
      "stateMutability": "nonpayable",
      "type": "function"
    },
    {
      "inputs": [],
      "name": "getter",
      "outputs": [
        {
          "internalType": "uint256",
          "name": "",
          "type": "uint256"
        }
      ],
      "stateMutability": "view",
      "type": "function"
    }
  ],
  "bytecode": "0x608060405234801561000f575f80fd5b506102708061001d5f395ff3fe608060405234801561000f575f80fd5b5060043610610034575f3560e01c8063993a04b714610038578063d423740b14610056575b5f80fd5b610040610072565b60405161004d9190610123565b60405180910390f35b610070600480360381019061006b919061016a565b61009e565b005b5f805f540361008457610083610195565b5b60645f54111561009757610096610195565b5b5f54905090565b5f81116100e0576040517f08c379a00000000000000000000000000000000000000000000000000000000081526004016100d79061021c565b60405180910390fd5b5f81036100f0576100ef610195565b5b606481111561010257610101610195565b5b805f8190555050565b5f819050919050565b61011d8161010b565b82525050565b5f6020820190506101365f830184610114565b92915050565b5f80fd5b6101498161010b565b8114610153575f80fd5b50565b5f8135905061016481610140565b92915050565b5f6020828403121561017f5761017e61013c565b5b5f61018c84828501610156565b91505092915050565b7f4e487b71000000000000000000000000000000000000000000000000000000005f52600160045260245ffd5b5f82825260208201905092915050565b7f4e65772076616c7565206d7573742062652067726561746572207468616e20305f82015250565b5f6102066020836101c2565b9150610211826101d2565b602082019050919050565b5f6020820190508181035f830152610233816101fa565b905091905056fea264697066735822122061af41ff8d3e6acb7e5964fdca4ddf8dffee1d3ffbc0bb6ac3c01ec556c84b8c64736f6c63430008140033",
  "immutableReferences": {},
  "source": "pragma solidity >=0.5.0 <0.9.0;\n\ncontract SimpleStorage {\n    uint256 a;\n\n    function setter(uint256 _a) public {\n        require(_a > 0, \"New value must be greater than 0\");\n        assert(_a != 0);\n        assert(_a <= 100);\n        a = _a;\n    }\n\n    function getter() public view returns (uint256) {\n        assert(a != 0);\n        assert(a <= 100);\n        return a;\n    }\n}\n",
  "sourcePath": "/Users/Kousalya/Desktop/Learning/DAppTruffle/contracts/SimpleStorage.sol",
  "compiler": {
    "name": "solc",
    "version": "0.8.20+commit.a1b79de6.Emscripten.clang"
  },
  "schemaVersion": "3.4.14",
  "updatedAt": "2023-06-05T06:15:51.060Z",
  "devdoc": {
    "kind": "dev",
    "methods": {},
    "version": 1
  },
  "userdoc": {
    "kind": "user",
    "methods": {},
    "version": 1
  }
}